:020000040800F2
:200000002099002095450008D1430008D3430008D5430008D7430008D94300080000000085
:20002000000000000000000000000000DB430008DD43000800000000DF430008E14300081C
:20004000D5450008D9450008DD450008E1450008E5450008E9450008474400082B4400088E
:20006000F5450008F9450008FD4500080146000805460008094600080D46000811460008FB
:2000800015460008194600081D4600082146000825460008294600082D46000831460008D8
:2000A00035460008394600083D460008414600085F440008494600084D46000851460008A0
:2000C00055460008594600085D4600086146000865460008694600086D4600087146000898
:2000E00075460008794600087D4600088146000885460008894600088D4600089146000878
:2001000095460008994600089D460008A1460008A5460008A9460008AD460008B146000857
:20012000B5460008B9460008BD460008C1460008C5460008C9460008CD460008D146000837
:20014000D5460008D9460008DD46000863440008E5460008E9460008ED460008F146000897
:20016000F5460008F9460008FD4600080147000805470008094700080D47000811470008F2
:20018000154700081947000803E011F8013B00F8013B13465A1E002BF7D1704701E000F8E3
:2001A000011B13465A1E002BF9D17047F8B504460D46E66AAE4220D02079A8B100F01FF833
:2001C000002801D00120F2BD2071206AA1690818864209D2E77804E0A069861900F00FF88C
:2001E0007F1EFFB2022FF7D2002D06D001232A4600F038FC0028E5D1E5620020F2BD0123E4
:20020000324604F13001607801F02CB938B504460021FFF7CBFF050057D1207803284DD16C
:20022000607900284AD00020E0624FF40072002104F13000FFF7B2FF552084F82E02AA20B4
:2002400084F82F02522084F8300084F83100612084F83200412084F83300722084F81402C3
:2002600084F81502412084F81602612084F81702206984F8180220690004000E84F819028F
:200280002069000C84F81A022069000E84F81B02E06884F81C02E0680004000E84F81D022A
:2002A000E068000C84F81E02E068000E84F81F0201236269FFF7A5FF00206071002200219E
:2002C000607801F005F900B10125284632BD2DE9F04104460D46022D02D3E069854201D357
:2002E00001206FE0266AAFB22078012804D067D3032839D01FD363E005EB550700F064F8CD
:2003000000285DD16089401E3840001990F830807F1C00F059F8002852D16089401E384091
:20032000001990F8300048EA0021E8075ABF0805000D080946E060894008B5FBF0F000F08F
:2003400046F800283CD16189491E11EA4701091991F831106289521E12EA4700001990F86B
:20036000300040EA01202DE060898008B5FBF0F000F02DF820BB6189491E11EA870109190E
:2003800091F833106289521E12EA8702121992F83220120442EA01616289521E12EA870226
:2003A000121992F8312041EA02216289521E12EA8700001990F8300008430001000901E004
:2003C0004FF0FF30BDE8F0816089B7FBF0F081192046EBE62DE9F843044688461646B8F1DF
:2003E000020F02D3E069804501D3022086E0276A3004050E1FFA88F92078012804D07AD359
:20040000032851D039D376E008EB58056089B5FBF0F0C119FFF7DCFF00286DD16089401E0D
:200420002840001900F230015FEAC87043BF087800F00F0040EA0610304608706D1C01203E
:2004400020716089B5FBF0F0C119FFF7C1FF002852D16189491E2940091901F230015FEA6E
:20046000C87248BF320906D40A7802F0F002330A03F00F031A430A703EE060894008B8FBA5
:20048000F0F0C119FFF7A4FFB0BB6289521E12EA4902121982F830606289521E12EA490126
:2004A000091981F8315027E060898008B8FBF0F0C119FFF78DFFF8B96289521E12EA890226
:2004C000121982F830606289521E12EA8902121982F831506289521E12EA89021219330C93
:2004E00082F832306289521E12EA89010919320E81F8332000E0022001212171BDE8F28341
:20050000F8B504460D46022D02D3E069854201D302261EE0002629462046FFF7D8FE0700B5
:2005200017D0012FF4D017F1010F08BF012610D0002200F010F806000BD1206910F1010F64
:2005400003D0401C2061012060713D46E0698542E1D33046F2BD294620463BE72DE9F0414F
:2005600004460D00D4F81C8005D1E7680FB147450AD3012708E0FFF7AAFE022838BF01207E
:2005800025D3404523D32F463E46761C464504D30226022F01D2002019E031462046FFF7E3
:2005A00096FEB0B96FF070423146FFF7D5FFC0B91DB13246FFF7CFFF98B9E660206910F148
:2005C000010F03D0401E2061012060713046BDE8F08110F1010F18BF0128F8D0BE42D4D15D
:2005E000D9E74FF0FF30F2E7891EC269921E914201D3002070478278806A02FB010070475B
:2006000070B504460D46E580A168012903D02068C269914201D3022070BD19B9017803298D
:2006200001D1416A59B90021E16001898D42F2D2416A4089400995FBF0F0401822E042895A
:200640005209807810FB02F6B6B206E00229E2D32068C0698142DED2AD1B2068ADB2B5424C
:2006600007DBFFF734FE014611F1010FEED1012070BDE160FFF7B8FF21684989490995FBDF
:20068000F1F10818206120684189490995FBF1F201FB125100EB411000F230006061002022
:2006A00070BDF8B504460F46E088451CADB2002D02D02169002901D10420F2BD20684289EF
:2006C000520995FBF2F302FB1352002A5AD1491C2161E16819B90089854253DBECE7428975
:2006E000520995FBF2F283785B1E1A424AD1FFF7EEFD0646022E01D20220F2BD16F1010F28
:2007000001D10120F2BD2068C1698E4234D3002FD2D0E168FFF722FF060001D10720F2BDCF
:20072000012EE9D016F1010FEBD0002100F061F80028E6D12068428900213030FFF72EFDC1
:2007400031462068FFF750FF2168C86200270BE001210171002100F04CF80028D1D1206855
:20076000C16A491CC1627F1C20688178FFB28F42EED3C16AC91BC162E66031462068FFF7FA
:2007800033FF2061E58020684189490995FBF1F201FB125100EB411000F23000606100208C
:2007A000F2BD70B504460021FFF72AFF002815D070BDCA7A12070DD40B22A36900251646A9
:2007C000721E2EB111F8015B13F8016BAD1BF6D0002DEDD000F02BF80028E9D100F008F871
:2007E0000028E5D161690A78002AE2D1042070BD21692068DAE410B504460420216991B1D2
:20080000FFF7F7FF78B961690A780AB904200BE0E52A04D02E2A02D0C97A090706D500F072
:2008200006F80028EAD008B10021216110BD0021204636E770B504460021FFF7E1FE0500A1
:200840000FD1FFF7D5FF05000BD160690078E52818BF002806D001212046FFF722FF050046
:20086000EFD0A5B9FFF7C4FF050010D16669202200F0B4FD0B22A1693046FFF785FCA069DD
:20088000C07A00F018003073206801210171284670BD10B50446E188FFF7B2FE40B9FFF7AF
:2008A000A7FF28B96169E5220A70216801220A7110BD2DE9F047884685690B22202128468D
:2008C000FFF76CFC0022002081460821D8F800A00FF6D41C0FF6DC1E02E008200B21224686
:2008E00019F80A3009F101099400212B03DB2F2B01D05C2B07D1D144C8F80090212BB4BF3D
:20090000042300232AE02E2B01D0884205DB082901D12E2BE1D0062038E0802BA4BF73449F
:2009200013F8803C664600E0761C3778002F18BF9F42F9D1002FEED1A3F141041A2C38BF6E
:2009400042F0020207D3A3F161041A2C03D242F00102203BDBB24355401CC1E70028DAD0E8
:200960002878E52804BF05202870082908BF224602F00300012808BF43F0100302F00C00C1
:20098000042808BF43F00803EB720020BDE8F08713B5044601E0401C019001980078202854
:2009A0000198F8D000782F2801D05C2802D10198401C01900020A06001980078202806D208
:2009C00000F06EFC0021616116BD00F05DFC01A92046FFF76EFF002813D12046FFF7E1FE04
:2009E000A169C97A01F0040120B1042809D1002907D105E0002904D16069C17AC906E4D46E
:200A0000052016BD10B5044601230A4600F02AF8002801D0032010BD94F82F0294F82E12D7
:200A200041EA00204AF65521884201D0022010BD04F26601C9488A784B781B0243EA02426A
:200A400094F866301A43824201D1002010BD8A7F4B7F1B0243EA0242097F11438142F4D0D0
:200A6000012010BD04F13001607800F0D4BCF8B5164602681378303B0A2B08D254783A2C60
:200A800005D1921C0260002B01D00B20F2BDB44C65680D60002D01D10C20F2BD287868B1CD
:200AA000687800F0B1FC0746C00707D4002E00F02D81780740F12A810A20F2BD0020287012
:200AC000687000F095FC0746C00701D50320F2BD05F10A020221687800F0FAFC002804D119
:200AE000688940F20141884201D30D20F2BD002E01D07807E0D4002600212846FFF782FFB9
:200B00000746012F14D105F2EE1001790029ECD0C17A827A120442EA0161427A41EA02213A
:200B2000007A40EA010631462846FFF76BFF0746032F01D10120F2BD002FD6D1688995F850
:200B40003C1095F83B2042EA01218142CDD195F8471095F8462052EA01210DD195F85710AB
:200B600095F85620120442EA016195F8552041EA022195F854201143A96195F84020EA70D8
:200B8000514395F83F2095F83E3043EA022216FA82F22A6295F83D20AA7095F8423095F8E9
:200BA000417047EA03232B8195F8447095F843C05CEA07270FD195F8537095F852C04FEA34
:200BC0000C4C4CEA076795F851C047EA0C2795F850C04CEA0707400993FBF0F095F83F3083
:200BE00095F83EC04CEA0323FB1A5B1A1B1AB3FBF2F2921CEA61012740F6F7739A4228BF39
:200C000002274FF6F7739A420FD3032795F85F2095F85E301B0443EA026295F85D3042EAF7
:200C2000032295F85C301A4301E02A6A8A186A622A6A89184018A8624FF0FF302861002088
:200C40002871032F5BD1687195F8610095F8601041EA002016FA80F26A61012305F13001F6
:200C6000687800F0D8FB002849D195F82F0295F82E1241EA00204AF6552188423FD195F89C
:200C8000330095F83210090441EA006095F8311040EA012095F830100843324988422ED145
:200CA00095F8170295F81612090441EA006095F8151240EA012095F8141208432A49884207
:200CC0001DD195F81F0295F81E12090441EA006095F81D1240EA012095F81C120843E860CE
:200CE00095F81B0295F81A12090441EA006095F8191240EA012095F81812084328612F70CC
:200D00000020E8622088401C2080E8800020F2BD80B5002805D00278002A02D0C2888A42D0
:200D200001D0092002BD407800F06EFBC00701D5032002BD002002BD002801D00B207047B0
:200D4000074842680AB10023137000291CBF00220A70416000207047000000004641540046
:200D60000895002052526141727241612DE9F2418BB004460020206002F01F0505F01E0251
:200D800000A90BA8FFF773FE00281BD100F02AFB1C210D4256D050B1042813D100A8FFF706
:200DA00049FD00280ED145F00805059E35E0680748BF08207AD4059E1EB1F07A11210842A8
:200DC00001D0072072E0280748D5707D317D41EA0020F17EB27E42EA012141EA0047002018
:200DE00030757075B076F07630777077B077F0770098012101710098D0F82C803FB139461A
:200E0000FFF77EFB002851D10098791EC16041460098FFF7CBF9002848D128071ED500206D
:200E2000F07200F07BFB0146B1730004000EF073080C3074080E707400980121017145F0F7
:200E400020050BE090BB059E16B1F07AC10601D504202BE0A90701D5C007B2D40098C06A02
:200E6000E06105982062A571707D317D41EA0020F17EB27E42EA012141EA00402061F07FCE
:200E8000B17F090441EA0060717F40EA0120317F0843E0600020A060FF20E0710020A06163
:200EA000009820600098C088A08000200CB0BDE8F0812DE9F843054691461E468846002063
:200EC0003060A9882868FFF723FF002803D1A879010601D502209FE0C00758BF0720FAD53A
:200EE000E868A968401A48453BD8814639E0A97949060BD50123AA6905F1240100F068F9C3
:200F000000284ED1A87900F0BF00A871A869A04208D00123224605F12401286800F055F961
:200F200000283ED1AC61E879401CE87100F044F94C46914588BF144649892246B0FBF1F358
:200F400001FB1300401900F124014046FFF71CF9A044A8682018A860306820183060A9EB5A
:200F60000409B9F1000F56D0A96828684289B1FBF2F302FB1312002AD8D1EA7983789A4259
:200F800018D300290EBF28696969FFF7A0F9022804D2A87940F08000A8719BE710F1010F01
:200FA00005D1A87940F08000A871012034E068610020E87169692868FFF716FB0028E8D0B1
:200FC000E9790C1828684389B9FBF3F7002F8ED083787A18934238BF5F1AFBB22246414696
:200FE00000F0F3F80028DCD1A87940060BD5A869001BB84207D22B685A8905F1240102FB6D
:201000000080FFF7C1F8E8793818E8712868408907FB00F49CE70020BDE8F2832DE9F8433A
:2010200005461646994688460020C9F80000A9882868FFF76DFEB8B9A879010601D50220C8
:2010400012E0800758BF07200ED5E868311881423ED2E868A968884238BF0846E860A879B1
:2010600040F02000A8710020BDE8F283A969A1420BD0A968EA68914207D20123224605F16C
:20108000240100F0A2F8002849D1AC61E879401CE87100F091F83446964288BF14464B89FC
:2010A00022464146B0FBF3FC03FB1C0040192430FFF76AF8A87940F04000A871A044A868EA
:2010C0002018A860D9F800002018C9F80000361B002EBED0A96828684289B1FBF2F302FBFF
:2010E0001312002AD5D1EA7983789A4220D331B9296941B9FFF732FA0146296103E06969B0
:20110000FFF72CFA01460029A3D0012904D1A87940F08000A87192E711F1010F05D1A87965
:2011200040F08000A87101209EE769610020E871A87940060CD50123AA6905F124012868D3
:2011400000F046F80028EAD1A87900F0BF00A87169692868FFF748FA0028D8D0E9790C18A5
:2011600028684389B6FBF3F7002F3FF47FAF83787A18934238BF5F1AFBB22246414600F08A
:2011800027F80028CBD1A869001BB8420CD229684A89114601FB008105F12400FEF7F4FF2E
:2011A000A87900F0BF00A871E8793818E8712868408907FB00F481E7A86829684A89131AE4
:2011C000B0FBF2FC02FB0C327047407800F023B9407800F047B938B500F0ACF800284AD194
:2011E000A1798A0647D548060ED50123A26904F124012068FFF7ECFF002801D0012032BD3D
:20120000A07900F0BF00A071E169FFF7F2FA002831D1256AE87A40F02000E872E06828771D
:20122000E0680004000E6877E068000CA877E068000EE8772069A87620690004000EE876AD
:201240002069000C28752069000C000A687500F065F9A8750104090EE975010C2976000E41
:201260006876A07900F0DF00A0712068012101712068FEF7CBFF32BD10B50446FFF7ABFF96
:2012800008B90021216010BD417D027D42EA0121C27E807E40EA022040EA0140A0607047E7
:2012A00000212046FFF7ACB920222A2B2C5B3D5D7C7F0000808182838485868788898A8B57
:2012C0008C8D8E8F90919293949596979899AD9B8C9DAE9FA021A2A3A4A5A6A7A8A9AAAB0B
:2012E000ACADAEAFB0B1B2B3B4B5B6B7B8B9BABBBCBDBEBFC0C1C2C3C4C5C6C7C8C9CACB7E
:20130000CCCDCECFD0D1D2D3D4D5D6D7D8D9DADBDCDDDEDFC0C1C2C3C4C5C6C7C8C9CACBDD
:20132000CCCDCECFD0D1D2D3D4D5D6F7D8D9DADBDCDDDE9F0446A1882068FFF7E9BC11B5C3
:2013400091B0012200A911A8FFF791FB08B112B010BD07A80690119900A8FFF719FB002834
:20136000F5D1059808B90620F1E7C17ACA0701D50720ECE7427D037D43EA0222C37E807EA0
:2013800040EA032040EA0244C80616D5022C38BF0220DCD31C2200A90AA8FEF7F5FE0C94C0
:2013A00002210AA8FFF72CF90028D0D10AA8FFF722FA0028DCD00428C9D100A8FFF769FA15
:2013C0000028C4D12CB121460098FFF799F80028BDD10098FEF71AFFB9E74289002130468F
:2013E000FEF7DCBE07A806900B9900A8FFF7D0BA10B5464C464800F0C8F818B1207800F067
:20140000FE002070207810BD002801D0012070473E48007870472DE9F0410C4615461E46FB
:2014200000B90EB904201BE038480078C00748BF032015D400F042F888B173022A4621468C
:20144000404600F02BFA00F03EF8404600F09DF808B9012004E0032FEFD0002FF9D10020F0
:20146000BDE8F0812DE9F0410C4615461E4600B90EB9042020E025480178C90748BF03207A
:201480001AD40078400748BF022015D400F016F888B173022A462146404600F0B6F900F0F5
:2014A00012F8404600F071F808B9012004E0032FEFD0002FF9D10020BDE8F081DFF85080B6
:2014C000404600F062B807461249404600F066BA002819D101200D4B1B78DB0701D5032045
:2014E00070474FF4007300290AD0022907D002D3032907D008E008480068106000E013801F
:2015000000207047136070470420704798000020A480002054850020F89400200020704777
:2015200010B504460020C4F81002002304EB8002C2F81432C2F85032021982F88C32401C2F
:201540000F28F3DB0820A4F8B202204600F0AEFB204600F070FC204600F006FC012120466D
:2015600000F0A0FC204600F0C1FC204600F05EFC002010BDD0F8CC000068C0F34140704748
:2015800080B500F040FD002002BDD0F8100270474069806880B27047081890F89B02704703
:2015A00000EB8100D0F8500270470A18002382F89B3200EB4112C2F8C03200F0ACBD10B45B
:2015C00050F8041B81B102681218001D50F8043BDC0744BFA9F10104E31852F8044B43F8E6
:2015E000044B091FF9D1EBE710BC704738B500F0C3F8002833D0DFF86403C178012902D01F
:2016000002291CD02BE0DFF8581300228A600A7306228A73DFF84C2382603F228281847038
:20162000102200255318DD73521EFBD1CD730121017107210170C4730221C1700FE0C17B39
:2016400019B90121C170002409E0012904BFC170012404D0022902D10121C1700224204664
:2016600032BD38B500F088F800283FD0BE49BB48C278012A02D0022A1AD037E0B84A08234C
:201680009360802313730A239373816004218170102100258B18DD73491EFBD12521D173FE
:2016A0000121017107210170C4730221C1701DE0C27B82B9AD4A0B78D3704B7893708B7877
:2016C0005370CB7813708B795372C97911720121C17000240AE0012A02BF0121C17001242E
:2016E00004D0022A02D10121C1700224204632BD38B500F041F800283CD09B499748C27802
:20170000012A02D0022A1DD034E0954A3F239360802313730A2393738160052181701021E6
:2017200000258B18DD73491EFBD11A21D1733F215174D1740121017107210170C4730221EE
:20174000C17017E0C27B52B9897811F0800118BF0121864A11730121C17000240AE0012ABD
:2017600002BF0121C170012404D0022A02D10121C1700224204632BD0324FFF706BF38B5C0
:20178000FFF7FAFF00283ED0774A7448C178012902D002291ED036E071493F238B60802399
:2017A0000B730A238B7382608278427006228270102200255318DD73521EFBD1CC730D74CA
:2017C0003F22CA740121017107210170C4730221C17018E0C17B61B964491378CB71537825
:2017E0008B7193784B71D2780A710121C170002409E0012904BFC170012404D0022902D1EC
:201800000121C1700224204632BD76B50E461D46FFF7B2FF00283FD05048C178012902D06D
:2018200002292CD038E04E498D6000220A730A228A738660102200265318DE73521EFBD1E7
:201840002A22CA739DF807204A749DF806208A749DF80520CA749DF804200A756A0AADF883
:2018600000209DF801208A759DF80020CA750121017107210170C4730221C1700CE0C17BBF
:2018800019B90121C170002406E00129F5D0022902D10121C1700224204676BD2DE9F641CD
:2018A00080460F461D46324C032020704046FFF76CFE00284FD0294EF078012802D0022848
:2018C0002ED048E026488560802101730A218173B760102100230A18D373491EFBD128210C
:2018E000C1739DF8071041749DF8061081749DF80510C1749DF804100175690AADF800108D
:201900009DF8011081759DF80010C17501203071072030700320F0730220F070032019E0A3
:20192000F07B38B94046FFF730FE18B10120F07000200FE0F07B012806D14046FFF725FE3E
:2019400010B10120F07006E0F07B022803D10120F070022020702078BDE8F681A8940020B3
:20196000D8940020B89400205C920020F89400209900002010B5A04CFFF707FE40B19F4878
:201980009F4901609F494160002141730120E070002060629C480021017010BD2DE9F041C3
:2019A00005468846FFF7F1FD002815D0934F974E914C2079401E07280ED8DFE800F0040EA4
:2019C000316291A8BFCE73781F22394600F0D6F80120607102202071CAE000F0CBF801281A
:2019E00013D10020606202206071387B00F08000B96841B1A162A168E162802808BF032017
:201A0000E9D00420E7E70520E5E7022808BF6079E1D00428E0D1012084F820000820DAE72C
:201A2000317800F0A8F8012802D0617903291ED00020606203206071E16AA26A412A0CD307
:201A400033784022284600F09AFCA06A4038A062E06A00F24000E0628AE0002AD3D0337861
:201A600092B2284600F08BFC0020A06280E00428FCD1002084F82000072020710520607158
:201A800076E000F077F8E16A01281AD10020606204206071A26A412A0AD37378402200F0CA
:201AA0006DF8E06A00F24000E062A06A4038DCE70AB905208FE7737892B200F05FF80020CA
:201AC000D3E7022805D173784022403900F056F84EE004284CD1012084F820000820CCE739
:201AE0000520607104F11000A0603F20A0810D2004F1100100224254401EFCD12274337814
:201B00003F22A168284600F03AFC062063E7317800F031F801280AD10020606205206071B9
:201B2000A07820704146284600F043F81FE004281ED1002084F8200007204CE70022414604
:201B4000284600F01EF838B994F82000022808BF082000D060793EE706E00122414628468F
:201B600000F00FF80028F5D0042801D10220E073BDE8F08171782846FFF70EBD284600F082
:201B8000F3BB10B50123214C12B1012A03D007E02378E27801E06378A27800F089FC034610
:201BA0001548416A491C4162052928BF0423184610BD70B5064601250F4CFFF7E6FCC0B173
:201BC000124801783046FFF7EBFC0D2810D120690F4988420CD1606908494968884208D1D3
:201BE000207F08B9002504E0012802D0022800D10225E573284670BDA8940020D894002084
:201C00005553424350403020169500205C9400205553425370B582B0044600200090DFF877
:201C200060562E46032000F0B7FDE06801690091761E12D000990029F4D5009941F00101A3
:201C4000009100990161016900916D1E02D00099C907F8D4032000F09FFD002076BD30B584
:201C6000C4787CB9DB1C5D1003EB957300EB8200D0F8D00003E051F8042B0260641CB4EBB8
:201C8000A30FF8D3002030BD10B50023D21C541002EB9472D0F8D00003E0046841F8044B1E
:201CA0005B1CB3EBA20FF8D3084610BD30B50022C270012383704023838001290CD14FF07C
:201CC000A042C17208210170042141704FF4A071C180022101720AE049B9DFF8A825C17291
:201CE0000C210170062141704FF4A061C180C26002F50061016100210AE000EB810302EBA6
:201D0000411404F510659D6104F530645C65491C43789942F1D302F58061416102F588619B
:201D2000C0F8CC10002108E000EB810302EB411404F5A064C3F89040491C03789942F3D34C
:201D4000002108E000EB810302EB013404F58054C3F8D040491C03789942F3D302F5606118
:201D6000C0F80C11002030BD38B50446E068217A012918D1816B21F48031627A0AB141F4D6
:201D800080118163C168DFF80025114041F01001C1602046FFF73EFFE07801283AD1E06888
:201DA0002A21816036E0C16841F04001C1602046FFF730FF4FF48031207A032808BF4FF4D7
:201DC000403141F43011607A08B141F48011E0688163142000F0E2FCE068C168227A032A5B
:201DE00008BF41F48031C160217A032912D1016BDFF898241140DFF8982442EA01050563EE
:201E0000C82000F0CBFCE06845F400010163C82000F0C4FCE078012806D1E068816821F00B
:201E20001E0141F02A018160002032BDC068816841F0010103E0C068816849084900816084
:201E40000020704780B500220092009A42F020020092009A61F38A12009200F01DF80269B6
:201E60000092491E02D0009A9206F8D40FE080B500210091009941F01001009100F00CF863
:201E800002690092491E02D0009AD206F8D4032000F082FC002002BDC06800990161DFF864
:201EA000E013704780B5C068C26822F0C042012908BF42F0005202D009B942F08042C260BE
:201EC000322000F06BFC002002BDC068406900F00100704780B5FFF7F8FF012818BF0020BF
:201EE00002BDC068416980690840704738B50446002500F035FCD4F80C0105600121204626
:201F000000F06FF860690068616920F004000860E07A01280BD1E06880214162E068DFF8E9
:201F200074138162E068DFF87013C0F8001110212046FFF787FF2046FFF799FF4FF0FF3255
:201F400009E004EB8500D0F890108A60D0F890000021C1606D1C20788542F2D30121204603
:201F600000F00CF8204600F027F8002032BD4069806800F0010080F00100704738B5044608
:201F80000D4600F0E5FB204600F034F8C10406D4012D04D140F48050D4F8CC100860C10421
:201FA00005D525B9D4F8CC1020F480500860C820BDE8324000F0F2BB0021C26891614FF05D
:201FC000FF33536153605361B44B9361C07800B91021B34801439069884308439061002040
:201FE000704740690268920801F0030151EA820101607047D0F8CC00006820F02E007047C1
:020000040800F2
:2020000040694069704738B50446FFF7F3FF4FF4807141EA0005D4F8CC0005600A2000F01D
:20202000BDFBD4F8CC0025F480710160142000F0B5FB012032BD70B5002300EB8102D2F881
:2020400090504FF0FF36AE60C578012D08BF042300EB411505F2AC2466792EB1022E03D0FC
:2020600017D3032E0FD01CE040F299463343A67816B14FF4807613E043F04003267986B186
:2020800043F020030DE040F299663343A67846B1EFE740F221263343A67816B14FF4C0761E
:2020A0003343D2F89060F36043699B69012606FA01F1194343699961C168896941F0007115
:2020C000C068816195F8AC02800500F0FE506178C90201F4F0410843A178C90301F40041C8
:2020E0000843E17802290CBF0121002140EA41406179890401F440210843E188490550EA5F
:2021000051506179032908BF40F00050D2F890100860002070BD2DE9F04704460D4604EBD9
:20212000451808F2B82708F2AE26796871B1B28811FA82F1491EB1FBF2F189B2B1F5807F0A
:2021400005DD4FF4807112027A6000E0012198F8AE2212B1B2884A437A6004EB8509786858
:202160004003504A02EAC14151EA5030B179490701F0C0410843D9F890100861E0780128C7
:2021800004D1D9F89000D8F8B8124161D9F89000006820F0005A2046FFF7E9FE4AEA407073
:2021A00020F0804040F00040D9F890100860E07848BB98F8AE0230BB786820B3F07828B18C
:2021C000022803D00CD303280AD014E0E068C06A00F01CF80FD2E068806940F0200008E06A
:2021E0006069006900F012F805D2E068806940F08060E16888617B689BB22A46D8F8B8122F
:202200002046FFF72CFD0020BDE8F0877968C91C890380B2B0EB114F704730B500EB810175
:20222000D1F89020126842F04042930C5400640803252B4203D003F00303022B02D1C0680F
:20224000C06A01E0406900690002000E08BF2246D1F890000260002030BD00EB8100D0F826
:202260009010114A0A61D0F89010096821F0804141F00041D0F8900001600020704700004B
:20228000410D03000000044037FFB5FFFFFF00F300002D1480006000E000600000080080E5
:2022A000080020230000F81F0000088070B50C4615461E466179FFF76FF901460120E27804
:2022C000012A02D0022A0AD070BD2178617009212170A560A68120770221E17070BD01291B
:2022E00002D1E070002070BD032902D1E070022070BD042904BFE070032070BD10B500EB90
:202300004213002483F8AE42032483F8B442C3F8B8120821C3F8BC121146FFF746F9C0B20C
:2023200010BD38B500EB4314002584F8AE52C4F8B81204F2B8214A600AB901224A7304F268
:20234000AE22497B01B1022191712DE038B500EB4314012584F8AE52022584F8B452C4F8CF
:20236000B812C4F8BC221FE038B500EB4314002500F010F8497B01B10221917114E038B532
:2023800000EB4314012500F005F8097B01B10221917109E084F8AE52C4F8B81204F2B821D3
:2023A0004A6004F2AE2270471946FFF7FEF8002032BDF0B583B000F026F84FF4807300225E
:2023C00000F04EF8070005D12A46314604F1220000F084F83846FEBDF0B583B000F013F874
:2023E0004FF40073002200F03BF8070009D10095334604F1500204F13E0104F1340000F05F
:202400009DF83846FEBD0C46154600F210160195009670477CB51D46069C00F21016A4B2A2
:20242000019400964FF440731343002200F018F8010014D17178032911D131788A1E9442FF
:20244000A4BF8C1EA4B2B61C002104E08A5D05F8012B891C89B2A142F8DB0021297076BDAF
:2024600038B5049D059C42F080020A7506224A75CB8203F47F424FF440739A420CBF40F23F
:20248000094200220A834C83A3B22A46FFF70EFF32BD00230B75052302E000230B75092340
:2024A0004B75CA8200220A834A830023FFF7FEBE10B502240C7501244C750024CC820A836E
:2024C0004C8300EB4313120622464CBF83F8C42283F8C5220023FFF7E9FE10BD10B50B7889
:2024E00003704B7843708B78CC78240254FA83F343800B7903714B7943718B798371CB7953
:20250000C371092A19D30A7A4B7A1B0253FA82F202818A7ACB7A1B0253FA82F242810A7B4F
:202520004B7B1B0253FA82F282818A7B8273CA7BC2730A7C0274497C417410BDF0B5059CF7
:202540001D7805705D7845709D78DE78360256FA85F545801D7905715D7945719D79857111
:20256000DD79C5711D7A0572A4B20A2C54D30479032C51D200242CE01F78FB185F78052F5A
:2025800021D176B202EBC60793F800C087F800C093F801C087F801C093F802C087F802C0C3
:2025A00093F803C087F803C093F804C093F805E04FEA0E2E5EFA8CFCA7F804C093F806C0C3
:2025C00087F806C0761C77B295F804C06745D3DB641C65B20679B5421EDA1D78EB185D78DE
:2025E000042DF6D164B204EBC4056D181E782E705E786E709E78AE70DE78EE701F792F7188
:202600005E796E719E79AE71DE79EE711E7A2E720026032FDCD2D6E7F0BD50F8041B61B1F7
:2026200050F8042BD30744BFA9F101039A18002342F8043B091FFAD1EFE7704780B5002184
:20264000002000F04BF9002000F00AF9012000F007F9022000F004F90320BDE8024000F0F9
:20266000FFB810B584B00121012000F0A9F94FF4D050019003208DF8090002208DF8080081
:202680000020ADF80A006B4C00F037F80A22092100F037F80A220B2100F033F80A220C2154
:2026A00000F02FF84FF48060019001208DF80A008DF80B0003208DF8090000F01EF80A222C
:2026C000114600F01EF801214FF4804000F093F90121802000F07DF900214FF0006000F024
:2026E000CCF94FF4A06000F097F91C2000F024F80121084600F076F91FBD01A9204600F05F
:20270000D1B9204600F012BA80B54FF4C06000F083F9432000F010F817208DF800000120D1
:202720008DF8010002208DF8020001208DF8030000A800F076F901BD8DF8000001208DF8D1
:2027400001008DF802008DF8030000A800F069B9394811B9012100F0E5B9012100F0E4B905
:202760001CB50121042000F02BF90120009003208DF8050001208DF804000020ADF806005B
:202780002D4C00A9FFF7BAFF0121204600F0CAF9C82000F003F813BD022117E0012115E059
:2027A00080B501214FF0804000F02EFA00280CD000F04BF82148016819B10168491E0160A7
:2027C00001BD4FF0804000F0FFF901BD3EB50D461A4C206000F03EF8002200F031F8022DDA
:2027E00008BF0B2003D0012D02D142F6DF6001900520ADF800000020ADF80800ADF80200CD
:2028000000A94FF0804000F0A3F900F01EF801214FF0804000F0CEF9012200F011F8012168
:202820004FF0804000F0D0F920680028FCD100F011F837BD00000240000802401095002025
:2028400001214FF0804000F0D7B901214FF0804000F0E4B900214FF0804000F0B5B90000AB
:202860001CB5044601210FF2301050F8240000F0A7F80FF21C1030F81400009001208DF840
:20288000040000208DF8060001208DF8070002208DF8050000A93C4850F8240000F002F9AC
:2028A00013BD394951F820100FF2E40232F8100008837047344951F820100FF2D40232F8F3
:2028C000100048837047304951F820104A690FF2C00333F8100050404861704730B585B0B8
:2028E00004460D4601210FF2C40050F8240000F067F801214FF4804000F07DF800208DF86A
:2029000010008DF813000FF2A00030F81400039003A91E4850F8240000F0C4F8012D28D14E
:202920000FF29400215C0FF28C00205C00F07AF90FF27C0030F81400019000208DF8080022
:2029400008208DF8090001208DF80A0001A800F07DF90FF26800205C8DF800000F208DF8E4
:2029600001008DF8020001208DF8030000A800F058F805B030BD0FF2300131F81010034AD4
:2029800052F8200000F0C6B85C00002094000020001000200040008008000000080000002F
:2029A0000800000008000000010000000100000001000000000000000000000006000000FE
:2029C000114A0029116814BF084321EA0000106070470E4A0029116814BF084321EA000087
:2029E000106070470A4A0029116814BF084321EA000010607047074A0029116814BF084359
:202A000021EA000010607047303802403438024040380240443802401B4908431B49086039
:202A2000704770B503781A460121C478ECB1174B1B6803F4E063C3F5E0631B0A4478C3F135
:202A40000405AC4085780F2646FA03F32B4023431B010F4C1355007842110E4B00F01F0036
:202A600001FA00F043F8220070BD50110A4A03F01F03994042F8201070BD084A11400843B9
:202A800007490860704700000000FA050CED00E000E400E000E100E080E100E080FFFF1F8C
:202AA00008ED00E0F0B50022012393400C681C409C422BD154000325A540ED4306682E406C
:202AC000066006680F79A7403E4306600E79012E01D0022E11D186682E40866086684F793B
:202AE000A7403E438660466826EA0303436043688E799640B6B233434360C3682B40C3605F
:202B0000C368CD7905FA04F42343C360521C102ACAD3F0BD0022006980B2084218BF0122D1
:202B200010467047018370474183704710B5CB1000EB830001F007018900036A0F248C40D6
:202B4000A3430362036A02FA01F11943016210BD30B50488274A214B98420DD090420BD091
:202B6000B0F1804F08D01E4DA84205D01D4DA84202D01D4DA84204D14FF68F752C404D880A
:202B80002C431A4DA84207D0194DA84204D04FF6FF452C400D892C4304804C68C4620C888E
:202BA0000485984201D0904201D1897A01860121818230BD0029018812BF41F080014FF627
:202BC0007F721140018070470029018812BF41F001014FF6FE721140018070470000014046
:202BE0000004004000080040000C0040001000400014004000040140002A828914BF1143B8
:202C000022EA0101818170470022038A808908400B4201D000B1012210467047C94301825F
:202C20007047000030B501F00302920021F00301054BCC580F259540AC43CC50CC589040DF
:202C40002043C85030BD00000838014030B50168CB4321498279002A27D00A46146823407A
:202C6000136053680468A3435360037951FA83F4236805682B43236093680468A3439360BA
:202C8000D3680468A343D36043790568102B07D1916829439160D16800680843D06030BDD9
:202CA00051FA83F42068284304E0007951FA80F420681840206030BD0021074A13680340C6
:202CC0005269024201D003B101210846704703490860704700000000003C0140143C0140D0
:202CE0002DE9F84304460025FFF7F4F8002868D02046FFF7F6F8060063D0300703D5E068F8
:202D0000082141610125F00603D5204600F01CFB0543B00603D5204600F056F80543700154
:202D200003D5204600F0A3F80543B00123D54FF0000900272046FFF763F9804604E000F018
:202D400065F9074309F101092078814512D2012000FA09F01FFA88F10142F3D004EB890061
:202D6000D0F890000068000449462046E7D500F0FEF9E6E73D43F00103D5204600F0F5F89E
:202D80000543B0000DD50020C4F810022046D4F8AC1409688847E0684FF00051416145F08A
:202DA0000105B0020DD5D4F890000068D4F8901040F040400860E0684FF40011416145F0BE
:202DC00001052846BDE8F283F8B50446E068C56AC5F3417004EB4010D0F8BC02C01C87085E
:202DE00036E000F0A1F804D200F094F821F02001816100F0A4F8C5F3417004EB4010C5F3E2
:202E0000417104EB4111D1F8B8127118C0F8B812C5F3417004EB401000F2B820C5F3417145
:202E200004EB411101F2B8214968891B4160C5F3417004EB401000F2B820C5F3417104EBC4
:202E4000411101F2B821896871188160E068C56ABFB2A8B2874208D2C5F3417004EB40106C
:202E600000F2B82040680028BBD10120F2BDF8B5044660690569C5F3417004EB4010D0F8BE
:202E8000BC02C01C870836E000F04EF804D200F041F821F08061816100F051F8C5F3417048
:202EA00004EB4010C5F3417104EB4111D1F8B8127118C0F8B812C5F3417004EB401000F2F0
:202EC000B820C5F3417104EB411101F2B8214968891B4160C5F3417004EB401000F2B8203B
:202EE000C5F3417104EB411101F2B82189687118816060690569BFB2A8B2874208D2C5F3A3
:202F0000417004EB401000F2B82040680028BBD10120F2BDC5F3417004EB401000F2B82059
:202F20008688E06881697047AE00B6B2C5F3417004EB401000F2B8204068B0427047C5F309
:202F4000417004EB401000F2B8204068C01C87083346680F00F00302C5F3417004EB401017
:202F6000D0F8B8122046FEF77ABEF8B5044600200026D4F8CC100D68096821F02E07A9076B
:202F800008D52046D4F8AC144968884747F002070120012629072BD547F00807690727D578
:202FA0000121C4F81012690C01F00302022A01D0012A1CD16269136801F0030102290BD14F
:202FC00041F27071516003F00301022910D0E07A01280CD1022107E04BF68031516003F02A
:202FE0000301012904D001212046FEF7FAFF0120A90644BF47F02007012610B12046FFF7E4
:2030000002F8D4F8CC0007603046F2BDF8B500EB8104D4F89050AA68EB6813402A685E071A
:203020000AD50420A860D4F89000C068D4F8901040F00200C86083E09E0648BF202026D4F3
:203040000E18DF0706D500F084F80120A86086F88C0275E01F0705D50822AA6000F07CF8FB
:203060000520F4E7DF0605D500F073F81020A8600320ECE71F060BD500F064F8D4F81402D5
:20308000401CC4F81402062086F88C02802056E05F0605D500F05DF84020A8600420D6E72D
:2030A0005F0509D500F04EF81020A860082086F88C024FF4806042E09B0741D5EB6823F0C9
:2030C0000203EB6000EB411396F88C72012F0ED1012086F89B02900C00F0030002282DD1D3
:2030E00003F2B020417D81F00101417526E096F88C22032A03D1022086F89B021EE096F818
:203100008C22042A07D193F8B022012AF3D1C9B2FFF7A3F8EFE796F88C02052808BF042099
:20312000EAD096F88C02062808D1D4F81402032804D186F89B020020C4F814020220A86099
:203140000120F2BDEA6842F00202EA60C9B2FFF764B80022C4F81422D4F89020D268D4F8AA
:20316000903042F00202DA60C9B2FFF756B82DE9F84F80460D4608EB850BDBF89070B868B4
:20318000F96801EA0004D7F8009005EB080A60070AD50420B860DBF89000C068DBF89010FE
:2031A00040F00200C86025E0A00648BF202020D420070FD5F86840F00200F86005208AF833
:2031C0008C021020B8600820B86024F0100400F0ABF80FE060050DD5F86840F00200F860FE
:2031E00000F0A2F81020B86008208AF88C024FF48060B860A00505D500F09AF84FF40070D6
:20320000B8608EE008EB451000F2BC264FEA994101F00301E2072CD598F80320012A09D162
:20322000DBF890201269D0F8BC025203B0EB5230CBF8500201208AF88C020020CBF8140259
:203240000120B86009B1022908D100F071F81020B860307A80F00100307262E0032960D17A
:20326000DBF8900049F00051016001208AF89B0257E0A00729D5DBF89000C068DBF89020D6
:2032800020F00200D0609AF88C02012802D18AF89B0218E09AF88C02052808BF0420F6D0BB
:2032A0009AF88C02062803D09AF88C02082804D10020CBF814020320E9E7032903D1307A32
:2032C00080F00100307202209AE7200613D5DBF89000C068DBF8901040F00200C860DBF8FF
:2032E0001402401CCBF8140206208AF88C0200F01BF8802084E7E00613D5032904D100F080
:2033000017F81020B86009E009B1022906D129F0804040F00040DBF89010086003208AF8E8
:203320008C020120BDE8F28FE9B24046FEF775BFDBF89000C068DBF8901040F00200C86016
:20334000E9B24046FEF769BF70B582B0044600208DF80000E068816921F010018161E0686B
:20336000056A05F00F008DF800009DF8000004EB8000D0F890000668C5F34340022846D10F
:203380002809400543D09DF8000004EB4010D0F8B80200283BD0C5F30A129DF8000004EBC3
:2033A0004010D0F8B8122046FEF76EFC05F00F0004EB4010C5F30A11D0F8B8228A18C0F854
:2033C000B82200F2B8208268891881609DF800009DF8001004EB810104EB4010D0F8C00269
:2033E000C1F850029DF8000004EB8000D0F890000069C00C80050AD09DF8000004EB8000CE
:20340000D0F8900026F0804141F000410160E068806940F01000E1688861012076BD0000B3
:20342000D0F8AC1401220A72D0F8AC04002181727047D0F8AC1401224A72D0F8AC04002122
:20344000C17270472DE9F0410446884616461F46069DFFF706F90020FFF782F9314620465C
:2034600000F019F8F767C6F88050DFF84C05C4F8AC0400210172D4F8AC044172414620461B
:20348000FEF74EF8D6F88000006880472046BDE8F041FFF739B938B504460D46002028700E
:2034A0006870A8700120E87028774020A871002085F82000012085F821002979204600F017
:2034C000E6FA6979204600F0E2FA002032BD000030B583B004460D4602208DF800002878ED
:2034E0000C280ED8DFE800F00E0718949494516B7D855D948A002046FEF742F8002800D14B
:20350000287085E02046FEF740F80028F9D0204600F0C9FA0220F3E7D5F880008068804719
:20352000D4F8AC0400214172D4F8AC04012181720021204600F091FA68718021204600F0D8
:203540008CFA28712046FEF71BF8002860D1D5F88000C06880472046FEF70CF885F821004C
:203560000620287095F82100D5F880108969884700F06FF82979204600F031FA00F069F8F6
:203580006979204600F02BFA42E02946204600F07FF800283CD1D5F88000406B80470A2052
:2035A000AEE7D5F88000806B8047012830D129462046EA6F1268904750BB0720A0E72946A6
:2035C0002046EA6F926890478DF800009DF8000008B9082094E79DF80010284600F042F8A0
:2035E00016E029462046EA6FD26890478DF80000F1E72946204600F017F909E029462046A6
:20360000FFF749FFD5F880004068804700F01BF82046FDF7BAFFA8B9D4F8AC04C07A88B942
:20362000D5F8800000698047D4F8AC040121C17229462046FFF72FFFD5F880004068804787
:2036400000F001F837BD05F120012046EA6F52681047A87901900020009095F8213095F8D9
:203660002020704710B50446052901D0042906D1D4F88000406C80470C20207010BD0629CA
:2036800005D10C202070D4F880000068804710BDF0B593B004460D46012605F22901AF1CB8
:2036A000C4A0AA78092A28D8DFE802F0052838565F728597A9B2082229462046FEF779FE2A
:2036C00000281AD195F8290038712046FDF758FFAE70387901900020009000230246F978DB
:2036E000204600F0A2F9387901900020009003460246B978204600F098F98AE01222294631
:203700002046FEF756FE0028F7D105F12200D5F88010C96988470220A8707AE0012229466E
:203720002046FEF7B6FE002873D1BE77D5F88000006A80470320A8700020019000900023BC
:20374000BA7FB978204600F070F90020019000900346BA7FF978CDE7092229462046FEF763
:203760003BFE002855D10420D6E7EA8E29462046FEF732FE00284CD105F1500205F13E01AD
:2037800005F13400D5F880305B6A98470520C3E7CA7952B100F040F800283AD102A8D5F8F7
:2037A0008010896A88470620B6E7D5F88010896A88470620B0E70A7A4AB100F02DF840BB89
:2037C00002A8D5F88010C96A88470720A4E7D5F88010C96A884707209EE74A7A4AB100F074
:2037E0001BF8B0B902A8D5F88010096B8847082092E7D5F88010096B884708208CE795F89A
:20380000392029462046FEF748FE10B9092083E70026304613B0F0BDFF20009002AB29460C
:203820002046FEF7F7BD00002DE9F04180460D460024AC74614E287F401E0A280FD8DFE841
:2038400000F0060F323B555F6E76949DA8006A7905F114014046FEF751FD02202877A5E088
:2038600000F0B9F8012817D1287D00F08000698B31B141F28831802814BF0520032004E018
:20388000322180280CBF09200720287731804046FDF77EFE288289E00328FCD10B202877F7
:2038A0000520A87482E02B79AA89D2B2A9684046FEF74CFD0420D1E729794046FDF76CFED3
:2038C00001280BD1092028774046FDF761FE31882A8A801A814269D20B20BFE7042802D16D
:2038E0006878287062E00328EED1F5E700F068F8AA89D2B2A9684046FEF713FD0620ADE7EB
:2039000000F069F8012808BF0720A7D00428E7D0022808BF0520A1D0032847D1DCE72B79B4
:20392000002211464046FEF711FD082096E729794046FDF731FE0746012FD1D0032F08BF7E
:203940000B208BD04046FDF723FE31882A8A801A81423CBF0B20287728D3042F26D16878B2
:2039600028700420A874032420E000F029F8002211464046FEF7D5FC0A206FE700F02BF8DF
:203980000128ADD0022808BF0920F6D003280DD1A2E7A87B401CA873C0B2032838BF0120C0
:2039A000EBD30820A8746878287002242046BDE8F08100004E2F41008800002014950020BC
:2039C000687908EB401090F8C51281F0010180F8C5126B79704769794046FDF7DDBDF8B564
:2039E000069D079C00EB411707F2AC2600EB410C9CF88CE40EF07F0E86F801E0BCF88CC449
:203A00004FEA0C6C4FEADC7C86F802C087F8AC227571F480F3700022327672760BB9012281
:203A20003271FEF708FB0020F2BD38B5059C00EB41150AB185F8AC2205F2AC22D588A4B2CF
:203A4000A54201D004B1D480D4789C4201D003B1D370FEF7F0FA002032BD002200EB420373
:203A6000B3F88C341B040BD44FF6FF739A4205D000EB420041F40041A0F88C14D0B2704761
:203A8000521CD2B2082AE9D34FF6FF72F6E7082907D200EB4100B0F88C144904490CA0F8FB
:203AA0008C14002070470221002300EB4102A2F88C34491C0829F8D300207047F0B583B0B1
:203AC00004460D4605F2540095F84310082938D105F243018A78502A33D1894ECA7B1206F5
:203AE000C97B42BFF170B5F85410B18003D4B170B5F85410F18081790906817942BFF170FF
:203B00000089B08002D4B1700089F080B1782046FFF7A3FF7070F1782046FFF79EFF3070F3
:203B200005F12007F08800F011F871782046FFF756FFB08800F00AF831782046FFF74FFFE0
:203B400002E0C06A006C80470020FEBD0190022000907B7895F82020704738B50446684DA5
:203B6000697839B1FEF759FB69782046FFF78FFF00206870297841B12046FEF74EFB297896
:203B80002046FFF784FF0020287031BD5D48002101700020704700002DE9F84381460E4626
:203BA0000124FDF7F2FC002812D0DFF85481564F544D28780A280BD8DFE800F0060B24560B
:203BC000636A71797E498A004846FDF7D3FE2C707FE021203075FF2070750020F082308360
:203BE00070830023024631464846FEF75FFB040004BF02202870032C6BD102206870092004
:203C0000287066E0A1203075FE2070750020F08230837483012308F1080231464846FEF700
:203C200045FB04000FD198F8080088F8480040B1787830B901207870D6F88000006C8047AC
:203C400047E003202870032C43D10320D6E77379002231464846FEF72BFC040039D1002002
:203C600088F848006878CBE74846FDF7BFFC28B9042028700020387000242AE000F02CF806
:203C800027E04846FDF7EDFC0028F7D10520F0E74846FDF72DFD08B90820EAE7EEE74846FD
:203CA000FDF76DFD0028E9D168782870E4E731464846FDF773FE0CE0D6F88000C06B8047EB
:203CC000C0B208B908209BE7012802D1062400E004242046BDE8F2830A4901280BD10A48AF
:203CE0000278521C0270D2B20A2A06D2062008700120C8707047022801D10A2008707047D7
:203D00005C940020A894002016950020FEB56A4801900020009000F0EFF800284AD10FF2AB
:203D2000B8173846FDF70BFB4FF40044634D2846FDF72BFC012842D1614E0A223946304670
:203D4000FDF714F800283AD100F068F85D4F2846FDF71BFC01281FD1002007E00098019969
:203D60004A1C01920978C1550098401C00900098B0F5004F04D200980019B0F5801FEDD11A
:203D800002AB4FF4004239463046FDF747F900980419B4F5801FDAD10320FEF78BFD002060
:203DA000FEF77FFD3046FDF767FA00210020FCF7C3FFF7BD0120FEF774FD00F0D6F9F7BD23
:203DC00010B5414C01220FF220112046FCF7CEFF00BBE068B0F5801F02D900F01FF819E0F4
:203DE00000F01CF8344800F090F830B100F016F80120FEF756FD00F0B8F900F01EF80320B9
:203E0000FEF758FD0120FEF74CFD2046BDE81040FDF732BABDE8104000F0A7B90320FEF761
:203E200040BDBFF34F8F2948016801F4E061284A11430160BFF34F8FFEE72DE9FC410020D6
:203E400000900127234C1F4D65601B48A0601E4EDFF868804046FDF798FB012829D101ABA0
:203E60004FF4004229463046FDF723F8BDF804002060B0F5004F12D2002710E00098616840
:203E8000DDF800C0A1EB0C015158181A101800F0B5F8082818BF00F068F90098001F0090B5
:203EA000A368226800980028E8D1D018A060012FD0D0BDE8F381000000800008A480002057
:203EC000148A00209C000020388E00200CED00E00400FA057C000020303A55504C4F4144DB
:203EE0002E42494E00000000303A696D6167652E42494E0000F060B910B5002400F0BCF9B0
:203F0000012808BF0124204610BD38B50024A0F10061B1F5804F40D32B490918B1F5804FC4
:203F200038BF082439D329490918B1F5804F38BF102432D326490918B1F5804F38BF1824E2
:203F40002BD324490918B1F5803F38BF202424D3214900F04FF838BF28241ED31F4900F011
:203F600049F838BF302418D31D4900F043F838BF382412D31B4900F03DF838BF40240CD33E
:203F8000194900F037F838BF482406D317490818B0F5003F34BF50245824154D2846FDF759
:203FA000F4FA01280CD10221204600F00EF90834082801D1592CF1D3602C01D1082801D0A7
:203FC000012032BD002032BD00C0FFF70080FFF70040FFF70000FFF70000FEF70000FCF782
:203FE0000000FAF70000F8F70000F6F70000F4F7A48000200918B1F5003F704700F018B947
:020000040800F2
:2040000080B56648017889B9012101700120FEF727FC0020FEF724FC0220FEF721FC0320AA
:20402000FEF71EFC00210846FEF758FC5C4800684FF47A71B0FBF1F0B0F1807F0CD25949D3
:204040000002000A401E48605748F0220270002088600720086001BDFEE7704785E084E071
:204060007047012800D1704780B5022818BF00F07CF801BD70477047704770477047704736
:20408000704772E00120704770471CB5474C207810B1012816D062E004F10C01FCF74CFE3B
:2040A00020B100F062F84FF0FF3016BD4048007B012804D10320FEF7F4FB00F056F801203D
:2040C00020704CE04FF4967060600120A06001210020FEF703FC0120009000208DF804006A
:2040E0000C208DF8050001208DF8060000A8FEF7ADFDFFF765FE00210846FEF7EFFB6068A8
:2041000028B9A068012802D1FFF700FE05E00120FEF7D0FB0020FEF7C4FB0020A060254C9B
:204120000020FEF728FC012804D12046FDF72DFA0128F5D00020FEF71EFC20B92046FDF777
:2041400024FA0128F6D00020FEF715FC012804D12046FDF71AFA0128F5D0FFF762FE00205C
:2041600016BD124800210170704780B50220FEF7AAFB322000F001F8F8E701B40B4800991D
:20418000416041680029FCD101B070470748416811B14168491E4160704700001995002087
:2041A0005800002010E000E023ED00E0D8850020F8940020A48000203F48C168002903D5A9
:2041C0003E4901603E490160704770B50446002651B1012908BF4FF4807605D002290CBFCC
:2041E0004FF400764FF4407600F072F808281ED1344D286820F440702860286830432860AC
:20420000286820F0F8002860286844F0020108432860286840F48030286000F059F8296816
:2042200021F002012960296821F0F801296070BD70B500F017F808280CD100F016F84FF41E
:20424000007100F008F8256000F042F8316849084900316070BD08433060306840F00100B9
:204260003060704704460D4632E0164E306820F44070306030687047002013490978AA29D9
:2042800018BF01207047082010490A68D20301D5012070470A68D20601D5052070470A688B
:2042A00012F0EF0201D0062070470968890748BF0720704700000000043C02402301674525
:2042C000AB89EFCD103C0240153C02400C3C024080B508208DF80000FFF7D5FF8DF8000012
:2042E0009DF800000128F7D09DF8000002BD000082B03048016841F001010160002181603C
:2043000001682D4A114001602C494160016821F4802101600021C16001910091016841F472
:2043200080310160016801F4003100910199491C0191009919B90199B1F5A06FF2D10168D4
:20434000490C01F001010091009901292CD1016C41F0805101641A490A6842F480420A60B9
:2043600081688160816841F400418160816841F4A051816013494160016841F0807101605A
:2043800001688901FCD5104940F205620A608168890889008160816841F002018160816832
:2043A00001F00C010829FAD108484FF00061016002B0704700380240FFFFF6FE1030002479
:2043C0000070004008544007003C024008ED00E07047FEE7FEE7FEE7FEE7704770477047C7
:2043E00038B5214C2068E8B1204D0020FEF7C3FA0128286811D118B12868401E286031BD3B
:204400001B4C2078642803D22078401C207031BD0320FEF758FA0020F8E7002804D0002045
:20442000206031BDFFF7B2FE31BD80B50220FEF743FC38B10F48D0F88000406980470220D5
:20444000FEF745FC01BD80B50120FEF735FC28B10320FEF726FA0120FEF739FC01BDFEF7DD
:204460009FB90548FEF73CBCE0850020DC8500201895002054850020A480002038B5FEF7B8
:20448000DDF8FFF737FD124C0020FEF774FA70B910480168104A1140B1F1005F07D1416825
:2044A00061602160006880F308880846804704F2B8450A4800900A4B2A46012104F1080081
:2044C000FEF7C0FF294604F10800FFF701F8F9E79C800020008000080000FE2F00000020DC
:2044E0006C00002010B5084979441C31074C7C441A34A14206D0081D0A68511888470146E0
:20450000A142F8D110BD00BF08000000280000000BE1FFFF809400009C0000200000000079
:204520009FD0FFFF9C000000F401000000000020000000004EF68851CEF20001086840F4DB
:20454000700008604FF00070E1EE100A7047000000F009F8002801D0FFF7C4FF0020FFF77B
:204560008DFF00F002F80120704780B500F002F800BF00000746384600F002F8FBE7000078
:2045800080B5C046C046024A11001820ABBEFBE7260002000148804701480047F1420008F7
:2045A000A5450008C046C046FFF7C4FFFFF7D0FFFFF70EBFFFF70DBFFFF70CBFFFF70BBF79
:2045C000FFF70ABFFFF709BFFFF708BFFFF707BFFFF706BFFFF7FEBFFFF7FEBFFFF7FEBF11
:2045E000FFF7FEBFFFF7FEBFFFF7FEBFFFF72BBFFFF71BBFFFF7FEBFFFF7FEBFFFF7FEBFD9
:20460000FFF7FEBFFFF7FEBFFFF7FEBFFFF7FEBFFFF7FEBFFFF7FEBFFFF7FEBFFFF7FEBF02
:20462000FFF7FEBFFFF7FEBFFFF7FEBFFFF7FEBFFFF7FEBFFFF7FEBFFFF7FEBFFFF7FEBFE2
:20464000FFF7FEBFFFF70BBFFFF7FEBFFFF7FEBFFFF7FEBFFFF7FEBFFFF7FEBFFFF7FEBFB5
:20466000FFF7FEBFFFF7FEBFFFF7FEBFFFF7FEBFFFF7FEBFFFF7FEBFFFF7FEBFFFF7FEBFA2
:20468000FFF7FEBFFFF7FEBFFFF7FEBFFFF7FEBFFFF7FEBFFFF7FEBFFFF7FEBFFFF7FEBF82
:2046A000FFF7FEBFFFF7FEBFFFF7FEBFFFF7FEBFFFF7FEBFFFF7FEBFFFF7FEBFFFF7FEBF62
:2046C000FFF7FEBFFFF7FEBFFFF7FEBFFFF7FEBFFFF7FEBFFFF7FEBFFFF7FEBFFFF7FEBF42
:2046E000FFF7BFBEFFF7FEBFFFF7FEBFFFF7FEBFFFF7FEBFFFF7FEBFFFF7FEBFFFF7FEBF62
:20470000FFF7FEBFFFF7FEBFFFF7FEBFFFF7FEBFFFF7FEBFFFF7FEBFFFF7FEBF014000086B
:20472000634100085B400008614000085F40000889400008634000087540000877400008E2
:20474000794000087B4000087D4000087F40000881400008854000088B4000088340000815
:204760005D40000800000000000000000102030406070809007A030A000C0240000C024049
:20478000000C0240000C0240BD3A00085B3B00088D3B0008993B0008000000000000000034
:2047A000008000083334000821340008000000000000024001030000FFFFFFFFFFFFFFFF67
:2047C000FFFFFFFFFFFFFFFFFFFFFFFFFFFFFFFFFFFFFFFFFFFFFFFFFFFFFFFFFFFFFFFFF9
:2047E000FFFFFFFFFFFFFFFFFFFFFFFFFFFFFFFFFFFFFFFFFFFFFFFFFFFFFFFFFFFFFFFFD9
:20480000FFFFFFFFFFFFFFFFFFFFFFFFFFFFFFFFFFFFFFFFFFFFFFFFFFFFFFFFFFFFFFFFB8
:20482000FFFFFFFFFFFFFFFFFFFFFFFFFFFFFFFFFFFFFFFFFFFFFFFFFFFFFFFFFFFFFFFF98
:020000040800F2
:020000040800F2
:20800000680C00200DDE000859D600085BD600085DD600085FD6000861D6000800000000B2
:2080200000000000000000000000000063D6000865D600080000000067D6000869D6000830
:2080400051DF000855DF000859DF00085DDF000861DF000865DF000819D800086DDF000847
:2080600071DF000875DF000879DF000807AA000881DF000885DF000889DF00088DDF00087B
:2080800091DF000895DF000899DF00089DDF0008A1DF0008A5DF0008A9DF0008ADDF0008B0
:2080A000B1DF0008B5DF0008B9DF0008BDDF0008C1DF0008C5DF0008C9DF0008CDDF000890
:2080C000D1DF0008D5DF0008D9DF0008DDDF0008E1DF0008E5DF0008E9DF0008EDDF000870
:2080E000F1DF0008F5DF000829D80008FDDF000801E0000805E0000809E00008FFA9000868
:2081000011E0000815E0000819E000080FAA000821E0000825E0000829E000082DE000086B
:2081200031E0000835E0000839E000083DE0000841E0000845E0000849E000084DE0000807
:2081400051E0000855E0000859E0000853D8000861E0000865E0000869E000086DE00008F9
:2081600071E0000875E0000879E000087DE0000881E0000885E0000889E000088DE00008C7
:2081800091E0000895E0000800221100C2685FF0FF335360C2685FF0FF33536151F0004177
:2081A00051F40061C2689161704770B582B004000025002600200090032000F072FEE06825
:2081C00000690090761CDFF89803864201D300201DE000980028EFD500200600009850F067
:2081E00001000090E06800990161E06800690090761CDB48864205D2009810F00100C0B20B
:208200000028F2D1032000F04CFE2800C0B276BDF0B504000020E578002D1BD100250026BF
:208220009BB213F1030C5FF0040E9CFBFEFC6546D2B214EB820CDCF8D0C067465FF0000CC4
:208240006646AE4206D2D1F800C0C7F800C0761C091DF6E7C0B2F0BD70B40300080000219E
:2082600092B2D41C042594FBF5F4D3F8D05000263100A14204D22E680660491C001DF8E7D1
:2082800070BC704770B40200002400200025D5700125957040259580C9B201290ED15FF0AF
:2082A000A0452C000125D57208251570042555704FF4A075D580022515720DE0C9B20029B4
:2082C0000AD1A84D2C000025D5720C251570062555704FF4A065D580D46014F500651561DB
:2082E00000252B005578AB420FD212EB830514EB431616F51066AE6112EB830514EB431649
:2083000016F530666E655B1CECE714F58065556114F58865C2F8CC5000252B001578AB4265
:2083200009D212EB830514EB431616F5A066C5F890605B1CF2E700252B001578AB420BD2D0
:2083400012EB83054FF4805606FB034616F58056C5F8D0605B1CF0E714F56065C2F80C5134
:20836000C0B270BC70472DE9F84304000025002006000020070000208146207A01282FD137
:20838000E068806B070037F48037607A002801D057F48017E068876300200600E068C06844
:2083A000060036F0400636F4800656F0100636F0080636F0800636F4003636F40026E06867
:2083C000C6602000FFF7F1FEE078012853D1052060F3440959F02009E068C0F808904AE0D4
:2083E000E068C068060056F04006E068C6602000FFF7DBFE0020070057F48037207A032830
:2084000001D157F4003757F4802757F4002757F40017607A002801D057F48017E06887635B
:20842000142000F04AFDE068C0680600207A032801D156F48036E068C660207A03281AD1A6
:20844000E068006B8046012060F39B6838F4000858F080582D2060F31648E068C0F830802A
:20846000C82000F02AFD58F40008E068C0F83080C82000F022FDE07801280AD1E068806876
:208480008146052060F3440959F02009E068C0F808902800C0B2BDE8F28310B401000020AD
:2084A00000231A0052F00102CB689B681343CC68A360C0B210BC704710B40100002000237A
:2084C0001A0052F00102CB689B689343CC68A360C0B210BC7047F8B504000D0000260027FA
:2084E00000200090009850F020000090009865F38A100090E06800990161E06800690090A6
:208500007F1C1748874204D20098C0F34010C007F3D4032000F0C5FC3000C0B2F2BD70B54F
:2085200082B004000025002600200090009850F010000090E06800990161E068006900900E
:20854000761C0748864204D20098C0F30010C007F3D4032000F0A5FC2800C0B276BD000032
:20856000410D030000000440F8B504000D000026E068C068070037F0005737F08047EDB200
:20858000012D02D157F0005704E0EDB2002D01D157F08047E068C760322000F08EFC300041
:2085A000C0B2F2BDC068406910F00100704710B504002000FFF7F6FF012801D0012000E042
:2085C0000020C0B210BD01000020CA6852691000CA6892691040704703691B681A00C9B266
:2085E00061F3010203691A6070472DE9F84F040000208DF800000020824600200700002052
:2086000080460020814600200500D4F80C010021016020690068070037F4C0572069076003
:20862000E07A01282BD103212000FFF7D5FFE06880214162402060F31F48802060F30F08FD
:20864000E068C0F8288018EB184060F30F09802060F31F49E068C0F8049119EB194060F30C
:208660000F091FFA89F9E068C0F8089119EB194060F30F091FFA89F9E068C0F80C9110217D
:208680002000FFF728FF2000FFF749FF20690021016120690021416120695FF0FF318161FD
:2086A00020690021C161002083466078834522D214EB8B00806900688246BAF1000F06D539
:2086C000002082465AF0804A5AF0006A01E00020824614EB8B008069C0F800A014EB8B00CC
:2086E00080690021016114EB8B008069FF2181601BF1010BD9E7002083466078834520D247
:2087000014EB8B01496D09680800002806D50021080050F0804050F0006001E000210800C9
:2087200014EB8B01496D086014EB8B01496D00220A6114EB8B01496DFF228A601BF1010B5E
:20874000DBE7002005004FF48070054320690069A843284321690861E07801280FD10020FB
:20876000060056F0010656F00206402060F38A0656F48036402060F35946206906632000B1
:2087800000F004F89DF80000BDE8F28F70B50400002500200600E06800218161E0685FF0DC
:2087A000FF3141612000FFF7EFFCE078002801D156F0100656F4006656F4805656F40056C8
:2087C00056F4802656F4002656F0080656F4801656F40016E0688069B0433043E1688861DC
:2087E0002800C0B270BD010000200B699B681A00530813F00303002B05D0022B09D005D3BE
:20880000032B03D007E00323180004E00223180001E001231800C0B2704770B40100002086
:2088200000252C000D69AD682A008D692D682B00550815F00305002D04D0022D05D001D339
:20884000032D05D1DB0ADB0202E0032565F30A038D692B604FF480752C430D696D68A54386
:2088600025430E697560C0B270BC7047F0B40200002000263300002634004E78012E0BD1A5
:208880000E7812EB8606B6693500012691F90070BE4066F30F040AE00E7812EB8606766D0E
:2088A0003500012691F90070BE4066F31F442E683300C3F3C036F6070DD48E6866F30A03F9
:2088C000CE7866F39343CE8866F3995353F0805353F400432B601669F66926431769FE6137
:2088E000C0B2F0BC7047F0B40200002000263300002634004E78012E0BD10E7812EB86064A
:20890000B6693500012691F90070BE4066F30F040AE00E7812EB8606766D3500012691F9B6
:208920000070BE4066F31F4433F400432B601669F669A6431769FE61C0B2F0BC70472DE987
:20894000F04704000D0000265FF0000A0020070000208046687801286BD1287814EB8000DF
:20896000806900680700287814EB80008069006980466869002807D15FEAD8485FEAC848D5
:20898000012060F3DC4811E0686960F312086869A9680818401EA968B0FBF1F060F3DC489C
:2089A000E878012802D1012060F35E78287814EB80008069C0F81080E078012806D12878C9
:2089C00014EB800080692969416110E0E87801280DD0686900280AD0012095F9001088404B
:2089E00082462069406B5AEA000021694863E87801280AD12069806881465FEAC95002D42E
:208A000057F0005701E057F0805757F0806757F00047287814EB800080690760E878012805
:208A20004FD16B699BB22A78E9682000FFF7F0FB47E0287814EB8000406D006807002878FF
:208A400014EB8000406D006980466869002806D1A86860F31208012060F3DC480EE0686917
:208A6000A9680818401EA968B0FBF1F060F3DC48C8F3C940A968484360F31208287814EBE7
:208A80008000406DC0F81080E078012805D1287814EB8000406D29694161E878012807D1A9
:208AA0006879002802D057F0005701E057F0805757F0806757F00047287814EB8000406DB6
:208AC00007603000C0B2BDE8F087FCB402000020002500263300002600964E78012E49D156
:208AE0009669340026683300266900964E69002E09D1009EF609F60100960126009F66F355
:208B0000D447009715E08E684F69BE4207D28E684E618E68009F66F30607009704E04E6955
:208B2000009F66F3060700970126009F66F3D4470097009E2661D678012E05D10E7812EBCD
:208B40008606B6690F69776153F0806353F000432360D678002E4BD14E69002E48D001262F
:208B600091F90070BE4035431669766B2E4317697E633DE00E7812EB8606766D3668330073
:208B80000E7812EB8606766D366900964E69002E0AD18E68009F66F3060700970126009F96
:208BA00066F3D44700970BE08E684E618E68009F66F3060700970126009F66F3D4470097B7
:208BC0000E7812EB8606766D009F3761D678012E05D10E7812EB8606766D0F69776153F094
:208BE000806353F000430E7812EB8606766D3360C0B2F6BC704730B40200002000252C0055
:208C00004D78012D0ED10D7812EB8505AD692B001D682C00002C01D554F0804454F400141E
:208C20001C6009E00D7812EB85056D6D2B001D682C0054F400141C60C0B230BC704730B43C
:208C40000200002000252C004D78012D05D10D7812EB8505AD692B0004E00D7812EB85059B
:208C60006D6D2B001D682C0034F40014CD78032D02D0CD78022D01D154F080541C60C0B26F
:208C800030BC704701000A69926910000A69D2691040000C70470200C9B212EB81035B6D2B
:208CA0009B68180013695B691840704701000A69926910000A69D269104080B2704782B0B2
:208CC00000210091009951F0404100910121009A61F3D44200921821009A61F3060200927D
:208CE000416D009A0A61C17801290FD100221100426D00F2C8535361426D1268110051F060
:208D000000415FF080221100426D116002B07047817A002911D003699B68190011F00103F5
:208D2000DBB2002B09D0D0F80C311A0032F0020252085200D0F80C311A60704738B504008A
:208D4000012084F8120100200500607885420BD214EB85008069FF21816014EB8500406D23
:208D6000FF2181606D1CF0E720690021016120690021416120690021C16120695FF0FF3166
:208D800081612000FFF7CBFB10212000FFF7A3FB31BD10B450F8041B81B102681218001D34
:208DA00050F8043BDC0744BFA9F10104E31852F8044B43F8044B091FF9D1EBE710BC704742
:208DC0001CB504000121012000F000F94FF4D850009003208DF8050002208DF8040000201F
:208DE0008DF8060000208DF8070000A9204800F05DF90A2208211E4800F0C5F90A22092126
:208E00001B4800F0C0F90A220B21194800F0BBF90A220C21164800F0B6F94FF480600090E0
:208E200001208DF8060001208DF8070003208DF8050000A90E4800F039F90A220A210C4860
:208E400000F0A1F901214FF4804000F0ECF80121802000F0CAF801215FF0805000F0F2F800
:208E60000121002000F002FA012000F0B8FA13BD0000024010B582B004004FF4C06000F0A1
:208E8000BDFA43208DF8000001208DF8010003208DF8020001208DF8030000A800F0B3FAF4
:208EA00013BD0021782202FB00F20723B2FBF3F2491C8A4200D3FBE7704710B504004FF4D3
:208EC0007A7000FB04F0FFF7ECFF10BDF0B4002100220023022400250226DFF8A4713F68FB
:208EE00017F00C0739000F00002F04D0042F06D0082F08D03CE0DFF8907107603BE0DFF8A8
:208F00008C71076037E0DFF87C713F68C7F380573D00DFF870713F6817F03F073E00002D86
:208F20000DD0DFF86871B7FBF6F7DFF858C1DCF800C0CCF3881C0CFB07F73B000CE0DFF81B
:208F40004871B7FBF6F7DFF83CC1DCF800C0CCF3881C0CFB07F73B00DFF828713F68C7F3DD
:208F600001477F1C7F003C00B3FBF4F7076002E0DFF814710760DFF808713F6817F0F007B9
:208F800039000909DFF80871CF5D3A000768D7404760DFF8EC703F6817F4E0573900890ABB
:208FA000DFF8EC70CF5D3A004768D7408760344F3F6817F460473900490BDFF8D470CF5DBB
:208FC0003A004768D740C760F0BC7047C9B2002905D0304A126802432E4B1A6004E02D4A07
:208FE000126882432B4B1A607047C9B2002905D0294A12680243284B1A6004E0264A126825
:209000008243254B1A607047C9B2002905D0234A12680243214B1A6004E0204A12688243D2
:209020001E4B1A607047C9B2002905D01C4A126802431B4B1A6004E0194A12688243184B2F
:209040001A607047C9B2002905D0164A12680243144B1A6004E0134A12688243114B1A6018
:209060007047C9B2002905D00F4A126802430E4B1A6004E00C4A126882430B4B1A607047D5
:2090800008380240043802400024F40000127A0024010020303802403438024040380240D5
:2090A000443802402038024024380240F0B400220023002400252A00102A4AD2012595400D
:2090C0002B000D681D402C009C4240D1056803261700FFB27F00BE40B543056005680E794C
:2090E0001700FFB27F00BE40354305600D79012D02D00D79022D1AD1856803261700FFB24A
:209100007F00BE40B543856085684E791700FFB27F00BE4035438560456801269640B543FD
:20912000456045688E799640B6B235434560C56803261700FFB27F00BE40B543C560C56896
:20914000CE791700FFB27F00BE403543C560521CB2E7F0BC70470200002013699BB20B4244
:2091600002D00123180001E000231800C0B270470183704741837047D2B2002A01D00183E3
:2091800000E041837047F0B400230024D2B211F00705EDB2AD0012FA05F52B0089B2CD1063
:2091A00010EB850589B2CE1010EB8606366A0F2711F0070C5FFA8CFC5FEA8C0C17FA0CF7CA
:2091C000BE432E6289B2CD1010EB85052D6A1D432C0089B2CD1010EB85052C62F0BC7047B0
:2091E0001CB504000121E4B24F4850F82400FFF7EDFEE4B24D4830F81400009001208DF861
:20920000040000208DF8060001208DF8070002208DF8050000A9E4B2454850F82400FFF718
:2092200045FF13BDC0B2424951F82010C0B23F4A32F810200A837047C0B23D4951F820109A
:20924000C0B23A4A32F810204A837047C0B2384951F820104969C0B2344A32F81020514041
:20926000C0B2334A52F820205161704730B585B004000D000121E4B22E4850F82400FFF751
:20928000A5FE01214FF48040FFF7CDFE00208DF8100000208DF81300E4B2274830F8140097
:2092A000039003A9E4B2254850F82400FFF7FEFEEDB2012D29D1E4B22148215CE4B22148CC
:2092C000205C00F0DFF8E4B21F4830F81400019000208DF8080008208DF8090001208DF878
:2092E0000A0001A800F034F8E4B21848205C8DF800000F208DF801000F208DF8020001201C
:209300008DF8030000A800F07EF805B030BD10B50400E4B2084830F81410E4B2074850F8ED
:209320002400FFF718FF10BDC8DE000820DF00081401002028DF0008BAB40008340100206B
:2093400087CF000886CF00080AC8000856D600080021254A11008279002A38D0224A126890
:2093600003689A43204B1A60204A126803689A431E4B1A60027951FA82F10A6803681A433E
:209380000A601B4A126803689A43194B1A60194A126803689A43174B1A604279102A0CD18B
:2093A000134A126803681A43114B1A60114A126803681A430F4B1A6010E00B4A11004279B6
:2093C00051FA82F10A6803681A430A6006E0027951FA82F10A6803689A430A6070470649E2
:2093E0000860704700000000003C0140043C0140083C01400C3C0140143C01401C49014308
:209400001C4A11607047F0B4002300210F22C478002C21D0174C246814F4E064D4F5E06404
:20942000240A2300D3F104042100D2B21A4144788C4023008478144023431B0104780E4DBB
:209440006355047864110D4D0126077817F01F07BE4045F8246009E004786411084D012621
:20946000077817F01F07BE4045F82460F0BC70470000FA050CED00E000E400E000E100E0C1
:2094800080E100E030B400220F2311F00304E4B2A400A3401A00C9B28B100E4C54F8233005
:2094A0009343C9B28C100B4D45F82430C9B28B10084C54F82330C0B211F00304E4B2A40019
:2094C00010FA04F42343C9B28C10024D45F8243030BC70470838014070B582B00024002668
:2094E000DFF8B80A40210170DFF8B00A00214170DFF8A80A03218170DFF8A00A0021C1702D
:20950000DFF8980A00210171DFF8900A00F084FDDFF88C0A20210170DFF8840A0121417006
:20952000DFF87C0A0C218170DFF8740A00F08DFD1E2001F0F4F801220F2100A800F0C5FD19
:209540009DF800003B2801D001F0FDF8DFF8540A4FF4FA710160E4B2002C35D1DFF8440A2B
:209560000068002830D004222921DFF83C0A00F0ACFDDFF8340A90F9000040B2002806D5A2
:20958000DFF8240A90F9000040B2454202E0DFF8180A0578DFF8100A90F9020040B20028D6
:2095A00006D5DFF8040A90F9020040B2464202E0DFF8F4098678EDB2102D02D2F6B2102E9C
:2095C000C9D301200400C6E7E4B2002C10D00020FFF728FE0020FFF79AFE0028FAD000207F
:2095E000FFF795FE0128FAD00020FFF725FE01E001F0A9F873BD00B583B001210D20FFF7E6
:20960000E5FC2020009001208DF8040000208DF8060000208DF8070002208DF8050000A943
:20962000DFF88809FFF742FD2021DFF88009FFF7A1FD0120009001208DF8040000208DF858
:20964000060000208DF8070002208DF8050000A9DFF85C09FFF72AFD4FF400700090002047
:209660008DF8040000208DF8060000208DF8070002208DF8050000A9DFF83809FFF716FD94
:209680000121DFF82C09FFF775FD012001F047F84FF40071DFF81C09FFF75DFD002801D1E9
:2096A00001F051F84FF48060009000208DF8040000208DF8060001208DF8070002208DF815
:2096C000050000A9DFF8EC08FFF7F0FC012001F026F84FF48061DFF8DC08FFF73CFD0028C9
:2096E00001D101F030F80121DFF8C408FFF740FD4FF4C050009000208DF8040000208DF856
:20970000060001208DF8070002208DF8050000A9DFF8A008FFF7CAFC4FF4007000900120A2
:209720008DF8040000208DF8060001208DF8070002208DF8050000A9DFF87808FFF7B6FCF4
:209740004FF40071DFF86C08FFF714FD012000F0E6FF4FF40061DFF85C08FFF7FCFC002818
:2097600007D04FF48051DFF84C08FFF7F4FC002801D100F0E8FF4FF48050009000208DF8D4
:20978000040000208DF8060001208DF8070002208DF8050000A9DFF81C08FFF787FC4FF461
:2097A0000060009001208DF8040000208DF8060001208DF8070002208DF8050000A9DFF88B
:2097C000F407FFF773FC4FF40061DFF8E807FFF7D1FC012000F0A3FF4FF48051DFF8D40783
:2097E000FFF7B9FC002801D100F0ADFF4FF40060009000208DF8040000208DF80600012080
:209800008DF8070002208DF8050000A9DFF8A407FFF74CFC4FF48050009001208DF804005A
:2098200000208DF8060001208DF8070002208DF8050000A9DFF87C07FFF738FC4FF48051E3
:20984000DFF87007FFF796FC012000F068FF4FF40061DFF86007FFF77EFC002801D100F07E
:2098600072FF4FF40070009001208DF8040000208DF8060000208DF8070002208DF8050087
:2098800000A9DFF83007FFF711FC4FF40071DFF82407FFF76DFC0020FFF7C4FC0020FFF70D
:2098A00036FD0028FAD00020FFF731FD0028FAD10020FFF7C1FC4FF40071DFF8F806FFF7FA
:2098C00059FC2021DFF8E406FFF752FC4FF48061DFF8E006FFF73FFC002801D000F033FFC0
:2098E0004FF4C050009000208DF8040000208DF8060002208DF8070002208DF8050000A92E
:20990000DFF8B006FFF7D2FB4FF40070009001208DF8040000208DF8060001208DF80700B2
:2099200002208DF8050000A9DFF88806FFF7BEFB4FF40071DFF87C06FFF71AFC012000F094
:20994000EEFE4FF40061DFF86C06FFF704FC002807D04FF48051DFF85C06FFF7FCFB0028D7
:2099600001D100F0F0FE4FF49050009000208DF8040000208DF8060002208DF80700022060
:209980008DF8050000A9DFF82C06FFF78FFB4FF40060009001208DF8040000208DF8060083
:2099A00001208DF8070002208DF8050000A9DFF80406FFF77BFB4FF40061DFF8F805FFF7EA
:2099C000D7FB012000F0ABFE4FF40071DFF8E405FFF7C1FB002807D04FF48051DFF8D40512
:2099E000FFF7B9FB002801D100F0ADFE4FF42060009000208DF8040000208DF8060002205F
:209A00008DF8070002208DF8050000A9DFF8A405FFF74CFB4FF48050009001208DF804005B
:209A200000208DF8060001208DF8070002208DF8050000A9DFF87C05FFF738FB4FF48051E4
:209A4000DFF87005FFF794FB012000F068FE4FF40071DFF86005FFF77EFB002807D04FF41D
:209A60000061DFF85005FFF776FB002801D100F06AFE4FF4C050009000208DF804000020F4
:209A80008DF8060002208DF8070002208DF8050000A9DFF82005FFF709FB4FF400700090FF
:209AA00001208DF8040000208DF8060001208DF8070002208DF8050000A9DFF8F804FFF786
:209AC000F5FA4FF40071DFF8EC04FFF753FB07BD1CB5002401214FF48070FFF7A4FA012114
:209AE0004FF40070FFF79FFA012000F079FE4BF680325721022000F0DFFE002801D000F059
:209B000022FEDFF8B40400210170DFF8B00400210160DFF8A8045FF440314160DFF89C0498
:209B200000218160DFF894044FF47061C160DFF88C0401F010FCDFF8880401F0FDFBDFF8F8
:209B400080045FF000710160DFF8740400210171DFF86C0400214171DFF864040021816023
:209B6000DFF85C0400210161DFF8540401210175DFF84C14DFF84C0401F0B6FBDFF8401439
:209B8000DFF8440401F0B0FB0420009002208DF8050003208DF8040000208DF8070000A9A9
:209BA000DFF81004FFF782FA0820009000A9DFF80404FFF77BFADFF8140400210180DFF835
:209BC00010040021018000200400032301220221DFF8F00301F0DDFB032301220321DFF868
:209BE000E80301F0D6FB0121DFF8D80301F0C4FB0121DFF8D40301F0BFFBDFF8A8034FF4F4
:209C0000FA710160E4B2002C66D1DFF898030068002861D0DFF8AC0301F032FC0221DFF8AD
:209C2000A40301F03DFC0028F8D0DFF8980301F02CFCDFF8A0130880DFF88C0301F020FC53
:209C40000221DFF8840301F02BFC0028F8D0DFF8780301F01AFCDFF880130880DFF87403E2
:209C60000088972812D3DFF8700300880A280DD2DFF8580300884FF4FA71884206D0DFF8F6
:209C80004C030088401CDFF844130880DFF8440300880A2811D2DFF84003008897280CD3E0
:209CA000DFF82C0300884FF4FA71884205D0DFF820030088401CC6490880C44800884FF47D
:209CC000FA7188429ED1C24800884FF4FA71884298D10120040095E70021BA4801F04CFB71
:209CE0000021B94801F048FBE4B2002C01D100F02AFD00F0FFFD022000F072FD4BF6803203
:209D00006421022000F0D8FD002801D000F01BFDA94801210170AD4800210180AC480021A6
:209D20000180002004000121A64801F025FB0121A54801F021FB9B484FF4FA710160E4B2B9
:209D4000002C54D197480068002850D09D4801F097FB02219B4801F0A3FB0028F9D0994854
:209D600001F093FB9B490880974801F089FB0221954801F095FB0028F9D0934801F085FBE6
:209D80009549088093480088AB280ED392480088AB280AD38D4800884FF4FA71884204D08B
:209DA0008A480088401C894908808A4800880A280ED2894800880A280AD2854800884FF428
:209DC000FA71884204D082480088401C804908807E4800884FF4FA718842B0D17C480088E8
:209DE0004FF4FA718842AAD101200400A7E7E4B2002C01D100F0A7FC0020FFF713FA002053
:209E0000FFF785FA0028FAD00020FFF715FA13BD30B587B00024002501214FF48040FFF766
:209E2000F3F801210620FFF7D1F802208DF8040000208DF8060001208DF8070001208DF887
:209E400005004FF48060009000A96448FFF72EF905220A216148FFF796F90820009000A9F7
:209E60005348FFF723F9052203215148FFF78BF95B4801F023FB4FF47A4004901020ADF8BF
:209E80000A000020ADF80C000020ADF814004FF44070ADF808000020ADF80E0002A9504858
:209EA00001F058FB01214E4801F03CFC0A2000F036FC3C484FF4FA710160EDB21E2D18D2CA
:209EC00038480068002814D00121454801F052FC002803D1334800680028F5D1404801F05A
:209EE0002FFC04004FF6FF70A4B28442E5D16D1CE3E7EDB21E2D01D000F025FC07B030BDEA
:209F0000704700202C49097800292FD135490988002915D134490988344A32F8111008004E
:209F200031490988491C304A11802F490988302902D12D4900220A802A4901220A8029E026
:209F40002B490988294A32F81110080028490988491C274A118026490988302902D1244934
:209F600000220A801F4900220A8013E01E4909881E4A32F91110B1F5004108001A4909889F
:209F8000491C194A118018490988302902D1164900220A8080B2704700000000100800201E
:209FA000240800202008002018080020000C024000080240000002405F0800200008002044
:209FC000E8070020002001400021014054080020520800204E080020500800200004024085
:209FE0000038004058080020560800205CDD000878010020FEE750F8041B61B150F8042B3C
:020000040800F2
:20A00000D30744BFA9F101039A18002342F8043B091FFAD1EFE7704710B582B004000020DC
:20A020008DF8000000F074F8607821780843E178084321790843A17808438DF800000122EE
:20A04000202100A800F022F813BD10B582B0040000208DF800000122212100A800F035F873
:20A060009DF8000010F0D0008DF800009DF80000217862781143A278114308438DF800005C
:20A080000122212100A800F001F813BD70B504000D001600B6B2022E01D355F0400508218F
:20A0A0008448FFF767F82800C0B200F0CAF8B6B2012E05D3207800F0C4F8761E641CF6E78F
